:020000040000fa
:080000000001040000000000f3
:020000040000fa
:10020000ef8620000e7922000e0188000000000019
:100210000c000700207d20000100200011000700d5
:10022000000020000000e000020032000000020098
:1002300000000000a8040200000000000040da00f6
:100240000000fe004440a900000020000000e00083
:100250000300320000002000a00188004440a800f4
:100260000000060091018800800078000000eb008b
:1002700015003700e280400032a0b4009101ba00be
:10028000e280400032a0b4009102ba00e280400057
:1002900032a0b4000002eb00472bde00f507b200ed
:1002a000602ce10004003a000059eb008301e900f2
:1002b000fdff3e00040037006128e100010032002c
:1002c0000082eb00040007001101ba000200e00008
:1002d000e8ff3a00000006003159ba008301e90046
:1002e0000c0032002159ba008301e90008003200f5
:1002f0000400e00003003a00e280400032a0b400b5
:10030000f5ff370011d9ba008301e900faff3a007e
:100310008100e800e180400032a0b4000000060047
:10032000ff3ffc00e7418000f84180000942800067
:100330000900440001002400c8020200000000007f
:100340000080530051552500c80202000000000043
:100350008003780009005400719e2400c802020046
:10036000000000000004780007007800f1408000e1
:10037000c802020000000000800478000800780035
:10038000e1408000c802020000000000008044003c
:100390001042880008007800f1408000c802020086
:1003a000000000008004780007007800e140800031
:1003b000c8020200000000000080540020428800b3
:1003c0000000fc000000060030158800a022a800f4
:1003d000a002ae00feff3700a002aa0000148000b9
:1003e0004100de0000000600ff3ffc00303020002e
:1003f000e4010200000000008003780020202000bb
:10040000e401020000000000000478008542800042
:100410000538e10012003c000540e10010003c00fe
:10042000c1bbde0041c4de00088043004180de0025
:1004300011408000c8020200000000008000780027
:10044000b04180009202020000000000b140800034
:10045000c8020200000000000043880001003700cd
:100460008980a8000000fc0000000600ff3ffc009f
:1004700010428000f1408000c8020200000000002d
:100480008004780020428000e1408000c802020021
:10049000000000008083540010428000e140800092
:1004a000c8020200000000008004780020428000a2
:1004b000f1408000c80202000000000000844400f7
:1004c000e7418800a0ed260088007800c8020200fd
:1004d00000000000800478000000240087007800fd
:1004e000c80202000000000000805400f0418800b3
:1004f0006012290088007800c80202000000000095
:10050000800478000000240087007800c802020000
:100510000000000000805400004288000000fc0041
:100520000000060000027800810278000500e0006b
:10053000010032000300370060026a00100033003f
:1005400011003700120009000520d9000400300016
:10055000110228000100e100090034000b003700ff
:1005600060026a0003003300e0826a000400330086
:1005700002003700e0826a0001003b000200370001
:100580001002280001003700f0fd270000000600df
:1005900000027800810278001301c0004100c80009
:1005a000f60020000600c8001001800000000600d0
:1005b000ff3ffc0001005000660302000000000045
:1005c00000027800820278001301c0004100c800d8
:1005d000200302000000000066030200000000008b
:1005e00000047800d9408000090042006603020040
:1005f0000000000000027800d040880083027800ec
:100600001301c0004100c8002003020000000000e8
:100610006603020000000000800478000900440026
:100620009a408000ab4080000a80e6000a00780013
:100630000b00e6000b0078004380de002e00370040
:100640004220ef0060026a000a0033002a018000a5
:100650000a00e00018003a001a0180000a00e000d9
:1006600018003200020009004555de0012003a0071
:10067000140037002a018000fbff2f000a00e00071
:1006800001003a000f0037000b50e10007003a006c
:100690001a0180000a00e0000a003200020009008e
:1006a0004555de0001003200060037001a0228001e
:1006b0001a01880003003700fafd27001a0188009c
:1006c000000037001001800000000600fafd230042
:1006d0001b022c000a00e10003003d000b00e100ba
:1006e00003003400030037000a00780001003700df
:1006f0000b007800000006000000fc00000006006f
:10070000ff3ffc00b5408000e04180000500400054
:10071000a403020000000000b00e8800f041800039
:1007200005004000a403020000000000c00e880085
:100730000042800005004000a40302000000000009
:10074000d00e8800040037000000e00001003c00eb
:1007500000002000000006000000fc000000060071
:100760000600fa00200798000000eb00000f780058
:100770000c0037000000eb00100798000400370061
:100780000060fe001e0090000000e80010079800c6
:100790009e009000e0822600808f5000f8ff360017
:1007a0001e0fe8002e0090009e0f1000f1ff390090
:1007b0000080fa00000006000000fa00e402a90030
:1007c000e422a900e442a900e462a900e4c2a9006d
:1007d000011c200091407800c0cfb30000c0600031
:1007e0000014a000c0e1b700210e80000000280026
:1007f00000806000116f200001007000200e880052
:10080000c801a900c821a900c841a900c881a90040
:10081000c8a1a900c8c1a900ca41a900ccc1bf0094
:10082000f043b20001c8b30001407000cce1b70052
:10083000c11c20009140780000ccb30000c06000d3
:10084000a040b300cce1b700d201a900d221a90099
:10085000d241a90030de20001008880005e1a9007f
:10086000205320006008880011e1a900c00d250078
:100870007008880013e1a90040032d00d00888000b
:100880001fe1a90030de2000e008880021e1a90076
:10089000012a20009140780000ceb30000c0700013
:1008a000a0e2b700a062a900112a200091407800c0
:1008b000c0cfb30000c060000014a000a1e2b700e8
:1008c0000000eb0010158800512a200091407800ac
:1008d00000ceb30000c060000014a000a5e2b70085
:1008e000412a20009140780000ccb30000c0600095
:1008f0005040b300a4e2b700300128004015880042
:100900000000eb0050158800a1e2a80081e0a900da
:10091000aac0bf007040b300aae0b7009180a80051
:100920008c60a8008cc0a90051092000914078007b
:10093000f0c8b30000c0600001c6b3000140700001
:1009400095e0b70090e0a9000080fa0000000600e2
:100950000000fa0098ff07004201070084c0bf00b2
:100960000044b2000004e00067003200ff3ffc00da
:100970008080200094fe0700800078000040800006
:1009800000805000e0418800909020008efe07001b
:10099000800078000040800000805000f041880016
:1009a000a0a0200088fe07008000780000408000a2
:1009b00000805000004288000000fc00e1418000ff
:1009c00090428000808f5000010034008980a80090
:1009d000f141800090428000808f5000010034007f
:1009e0008980a8000142800090428000808f5000e2
:1009f000010034008980a800e1418000a04280000d
:100a0000808f500001003d008980a800f1418000e6
:100a1000a0428000808f500001003d008980a80026
:100a200001428000a0428000808f500001003d0004
:100a30008980a8003afe070050428000d04088001c
:100a400040428000324280001142800074428000a7
:100a50008001780004007800d5fe0700504288002d
:100a600051428000504380000080400010428800c6
:100a700011428000b0408000808f5000020035009d
:100a8000b04080001042880011428000c0408000c9
:100a9000808f500002003c00c0408000104288005f
:100aa00060428000d0408800404280003242800096
:100ab00021428000800178000000eb00bcfe0700ae
:100ac000604288006042800020428800214280000d
:100ad000b0408000808f500002003500b0408000a0
:100ae0002042880021428000c0408000808f50005a
:100af00002003c00c0408000204288005bfe0700ee
:100b0000fffe070084c0a90084c0bf0001c8b30075
:100b1000014060000004e0004f003200ff3ffc0095
:100b20005050200028fe0700800078000040800020
:100b300000805000e04188006060200022fe070035
:100b4000800078000040800000805000f041880064
:100b5000707020001cfe07008000780000408000bc
:100b600000805000004288000000fc00ecfd0700ff
:100b700010428000b041880060438000b04288008d
:100b8000d142800020428000ee00070060438800d0
:100b9000a0418000d04088009041800082418000c8
:100ba00061438000800178000000eb0080fe0700b8
:100bb000a0418800a14180003041800074fe070000
:100bc000a0418800a141800010418000808f50002a
:100bd0000200350010418000a0418800a141800042
:100be00020418000808f500002003c0020418000a6
:100bf000a041880050408000d040880080408000a4
:100c000072408000614080003440800080017800a4
:100c10000400780066fe07005040880051408000c4
:100c200090428000808f500002003500904280008a
:100c30005040880051408000a0428000808f5000ca
:100c400002003c00a04280005040880050408000dc
:100c50007042880084e0a90086c0bf000042b20054
:100c60000004e00048003200dffd07002040800063
:100c7000b0428800e142800020408000b1000700bf
:100c80006040880050438000b0428800e14280000c
:100c900000438000ab0007005043880010438000f1
:100ca0000000e80010438800204380000000e000be
:100cb00018003a0011438000f0428000808f5000fd
:100cc000140035000143800030438000808f5000c5
:100cd000010035008980a800014380004043800066
:100ce000808f500001003c008980a80000438000f4
:100cf0000000e00001003a008980a8007007200091
:100d0000400e880010002000204388000000eb0007
:100d100010438800204380000000e00019003200ea
:100d20000143800030438000808f50000100350077
:100d30008980a8000143800040438000808f5000dc
:100d400001003c008980a800004380000000e00012
:100d500001003a008980a800304080000000e800cf
:100d6000304088003140800040408000808f50003b
:100d70000200350040408000304088000000eb0059
:100d80001043880086a0a9000060fe00f3fe370033
:100d900000a0fe003600f800849fbe00869fbe00c3
:100da0000000fa00a1418000304180000080400036
:100db00000418800004180006101b900404180008d
:100dc000514180000200400083804800404188007b
:100dd00051418800424180005341800060418000c1
:100de00071418000800f5100818f5900080035004b
:100df0000000eb00e040880080eb2700f040880016
:100e00006000b8004041880051418800010037006f
:100e1000540007008460a9000080fa004f03be0060
:100e20004f02be003600f9000080fe0000400600c0
:100e3000801f78000000fa00c1e1a9000000eb006b
:100e4000400e8800e622a900e642a900e662a90059
:100e5000e6c2a9008980a9000080fa004f0078004e
:100e6000004006000000fa00200e8000b04088001c
:100e7000200e80000000ea00c0408800b0408000e2
:100e80004300dd0090408800b140800080ff2f00cb
:100e90000088b900a04088000000eb00400e8800e8
:100ea000c1e1a90010002000900e8800e0012000a0
:100eb0002bfe0700a1e2a800e602a800c05d20000a
:100ec00027fe0700e0e020003ffd0700004088000b
:100ed000e602a900e001200021fe0700e622a800aa
:100ee000e00120001efe0700b0408000b00e880028
:100ef000b0408000c00e8800b0408000d00e880056
:100f0000e642a8004001200015fe0700e662a800a6
:100f10004001200012fe0700e6c2a800e001200008
:100f20000ffe0700c1e1a80005e1a80011e1a8003b
:100f300013e1a8001fe1a80021e1a8000080fa0049
:100f400000000600ff3ffc00b2428000020050009b
:100f5000c802020000000000020040000000fc0087
:100f600000000600ff3ffc00e9408000f0408000e8
:100f700001418000c802020000000000008044001f
:100f8000e0408800f940800001418000c802020072
:100f90000000000000805400f04088000000fc00c9
:040fa0000000060047
:020000040000fa
:0200000401f009
:04000000f7ff000006
:020000040000fa
:0200000401f009
:04000400c0ff000039
:020000040000fa
:0200000401f009
:04000800dfff000016
:020000040000fa
:100008002408000024080000240800002408000038
:100018002408000024080000240800002408000028
:10002800240800002408000024080000c806000076
:100038002408000024080000240800002408000008
:1000480024080000240800002408000024080000f8
:1000580024080000240800002408000024080000e8
:1000680024080000240800002408000024080000d8
:1000780024080000240800002408000024080000c8
:1000880024080000240800002408000024080000b8
:1000980024080000240800002408000024080000a8
:1000a8002408000024080000240800002408000098
:1000b8002408000024080000240800002408000088
:1000c8002408000024080000240800002408000078
:1000d8001807000024080000240800002408000075
:1000e8002408000024080000240800002408000058
:0800f8002408000024080000a8
:020000040000fa
:100108002408000024080000240800002408000037
:100118002408000024080000240800002408000027
:10012800240800002408000024080000c806000075
:100138002408000024080000240800002408000007
:1001480024080000240800002408000024080000f7
:1001580024080000240800002408000024080000e7
:1001680024080000240800002408000024080000d7
:1001780024080000240800002408000024080000c7
:1001880024080000240800002408000024080000b7
:1001980024080000240800002408000024080000a7
:1001a8002408000024080000240800002408000097
:1001b8002408000024080000240800002408000087
:1001c8002408000024080000240800002408000077
:1001d8001807000024080000240800002408000074
:1001e8002408000024080000240800002408000057
:0801f8002408000024080000a7
:020000040000fa
:100fa400000800006e0000000200000000000e00b7
:100fb400740000000000ef003f0000000000090082
:100fc400000300000000000000000000000000001a
:100fd40000000000b87e0000002d0000d3ff5c007c
:100fe400050000000000e8002303000012000300d5
:100ff40000000000000000000000000000000000ed
:1010040000000000000000000024000003000000b5
:10101400000000000000500078fb0f0005f0000005
:10102400002d0000ec04e800032823000000000069
:101034000000000082067e00f900000000000000ad
:0410440000000000a8
:020000040000fa
:081048000040da000000fe0088
:00000001FF
